{
  "contractName": "RocketElevator",
  "abi": [
    {
      "inputs": [],
      "stateMutability": "nonpayable",
      "type": "constructor"
    },
    {
      "anonymous": false,
      "inputs": [
        {
          "indexed": true,
          "internalType": "address",
          "name": "owner",
          "type": "address"
        },
        {
          "indexed": true,
          "internalType": "address",
          "name": "approved",
          "type": "address"
        },
        {
          "indexed": true,
          "internalType": "uint256",
          "name": "tokenId",
          "type": "uint256"
        }
      ],
      "name": "Approval",
      "type": "event"
    },
    {
      "anonymous": false,
      "inputs": [
        {
          "indexed": true,
          "internalType": "address",
          "name": "owner",
          "type": "address"
        },
        {
          "indexed": true,
          "internalType": "address",
          "name": "operator",
          "type": "address"
        },
        {
          "indexed": false,
          "internalType": "bool",
          "name": "approved",
          "type": "bool"
        }
      ],
      "name": "ApprovalForAll",
      "type": "event"
    },
    {
      "anonymous": false,
      "inputs": [
        {
          "indexed": true,
          "internalType": "address",
          "name": "previousOwner",
          "type": "address"
        },
        {
          "indexed": true,
          "internalType": "address",
          "name": "newOwner",
          "type": "address"
        }
      ],
      "name": "OwnershipTransferred",
      "type": "event"
    },
    {
      "anonymous": false,
      "inputs": [
        {
          "indexed": true,
          "internalType": "address",
          "name": "from",
          "type": "address"
        },
        {
          "indexed": true,
          "internalType": "address",
          "name": "to",
          "type": "address"
        },
        {
          "indexed": true,
          "internalType": "uint256",
          "name": "tokenId",
          "type": "uint256"
        }
      ],
      "name": "Transfer",
      "type": "event"
    },
    {
      "inputs": [
        {
          "internalType": "address",
          "name": "to",
          "type": "address"
        },
        {
          "internalType": "uint256",
          "name": "tokenId",
          "type": "uint256"
        }
      ],
      "name": "approve",
      "outputs": [],
      "stateMutability": "nonpayable",
      "type": "function"
    },
    {
      "inputs": [
        {
          "internalType": "address",
          "name": "owner",
          "type": "address"
        }
      ],
      "name": "balanceOf",
      "outputs": [
        {
          "internalType": "uint256",
          "name": "",
          "type": "uint256"
        }
      ],
      "stateMutability": "view",
      "type": "function",
      "constant": true
    },
    {
      "inputs": [],
      "name": "baseExtension",
      "outputs": [
        {
          "internalType": "string",
          "name": "",
          "type": "string"
        }
      ],
      "stateMutability": "view",
      "type": "function",
      "constant": true
    },
    {
      "inputs": [
        {
          "internalType": "uint256",
          "name": "tokenId",
          "type": "uint256"
        }
      ],
      "name": "burn",
      "outputs": [],
      "stateMutability": "nonpayable",
      "type": "function"
    },
    {
      "inputs": [],
      "name": "cost",
      "outputs": [
        {
          "internalType": "uint256",
          "name": "",
          "type": "uint256"
        }
      ],
      "stateMutability": "view",
      "type": "function",
      "constant": true
    },
    {
      "inputs": [
        {
          "internalType": "uint256",
          "name": "tokenId",
          "type": "uint256"
        }
      ],
      "name": "getApproved",
      "outputs": [
        {
          "internalType": "address",
          "name": "",
          "type": "address"
        }
      ],
      "stateMutability": "view",
      "type": "function",
      "constant": true
    },
    {
      "inputs": [
        {
          "internalType": "address",
          "name": "owner",
          "type": "address"
        },
        {
          "internalType": "address",
          "name": "operator",
          "type": "address"
        }
      ],
      "name": "isApprovedForAll",
      "outputs": [
        {
          "internalType": "bool",
          "name": "",
          "type": "bool"
        }
      ],
      "stateMutability": "view",
      "type": "function",
      "constant": true
    },
    {
      "inputs": [],
      "name": "maxMintAmount",
      "outputs": [
        {
          "internalType": "uint256",
          "name": "",
          "type": "uint256"
        }
      ],
      "stateMutability": "view",
      "type": "function",
      "constant": true
    },
    {
      "inputs": [],
      "name": "maxSupply",
      "outputs": [
        {
          "internalType": "uint256",
          "name": "",
          "type": "uint256"
        }
      ],
      "stateMutability": "view",
      "type": "function",
      "constant": true
    },
    {
      "inputs": [],
      "name": "name",
      "outputs": [
        {
          "internalType": "string",
          "name": "",
          "type": "string"
        }
      ],
      "stateMutability": "view",
      "type": "function",
      "constant": true
    },
    {
      "inputs": [],
      "name": "notRevealedUri",
      "outputs": [
        {
          "internalType": "string",
          "name": "",
          "type": "string"
        }
      ],
      "stateMutability": "view",
      "type": "function",
      "constant": true
    },
    {
      "inputs": [],
      "name": "owner",
      "outputs": [
        {
          "internalType": "address",
          "name": "",
          "type": "address"
        }
      ],
      "stateMutability": "view",
      "type": "function",
      "constant": true
    },
    {
      "inputs": [
        {
          "internalType": "uint256",
          "name": "tokenId",
          "type": "uint256"
        }
      ],
      "name": "ownerOf",
      "outputs": [
        {
          "internalType": "address",
          "name": "",
          "type": "address"
        }
      ],
      "stateMutability": "view",
      "type": "function",
      "constant": true
    },
    {
      "inputs": [],
      "name": "paused",
      "outputs": [
        {
          "internalType": "bool",
          "name": "",
          "type": "bool"
        }
      ],
      "stateMutability": "view",
      "type": "function",
      "constant": true
    },
    {
      "inputs": [],
      "name": "renounceOwnership",
      "outputs": [],
      "stateMutability": "nonpayable",
      "type": "function"
    },
    {
      "inputs": [],
      "name": "revealed",
      "outputs": [
        {
          "internalType": "bool",
          "name": "",
          "type": "bool"
        }
      ],
      "stateMutability": "view",
      "type": "function",
      "constant": true
    },
    {
      "inputs": [
        {
          "internalType": "address",
          "name": "from",
          "type": "address"
        },
        {
          "internalType": "address",
          "name": "to",
          "type": "address"
        },
        {
          "internalType": "uint256",
          "name": "tokenId",
          "type": "uint256"
        }
      ],
      "name": "safeTransferFrom",
      "outputs": [],
      "stateMutability": "nonpayable",
      "type": "function"
    },
    {
      "inputs": [
        {
          "internalType": "address",
          "name": "from",
          "type": "address"
        },
        {
          "internalType": "address",
          "name": "to",
          "type": "address"
        },
        {
          "internalType": "uint256",
          "name": "tokenId",
          "type": "uint256"
        },
        {
          "internalType": "bytes",
          "name": "data",
          "type": "bytes"
        }
      ],
      "name": "safeTransferFrom",
      "outputs": [],
      "stateMutability": "nonpayable",
      "type": "function"
    },
    {
      "inputs": [
        {
          "internalType": "address",
          "name": "operator",
          "type": "address"
        },
        {
          "internalType": "bool",
          "name": "approved",
          "type": "bool"
        }
      ],
      "name": "setApprovalForAll",
      "outputs": [],
      "stateMutability": "nonpayable",
      "type": "function"
    },
    {
      "inputs": [],
      "name": "symbol",
      "outputs": [
        {
          "internalType": "string",
          "name": "",
          "type": "string"
        }
      ],
      "stateMutability": "view",
      "type": "function",
      "constant": true
    },
    {
      "inputs": [
        {
          "internalType": "uint256",
          "name": "index",
          "type": "uint256"
        }
      ],
      "name": "tokenByIndex",
      "outputs": [
        {
          "internalType": "uint256",
          "name": "",
          "type": "uint256"
        }
      ],
      "stateMutability": "view",
      "type": "function",
      "constant": true
    },
    {
      "inputs": [
        {
          "internalType": "address",
          "name": "owner",
          "type": "address"
        },
        {
          "internalType": "uint256",
          "name": "index",
          "type": "uint256"
        }
      ],
      "name": "tokenOfOwnerByIndex",
      "outputs": [
        {
          "internalType": "uint256",
          "name": "",
          "type": "uint256"
        }
      ],
      "stateMutability": "view",
      "type": "function",
      "constant": true
    },
    {
      "inputs": [],
      "name": "totalSupply",
      "outputs": [
        {
          "internalType": "uint256",
          "name": "",
          "type": "uint256"
        }
      ],
      "stateMutability": "view",
      "type": "function",
      "constant": true
    },
    {
      "inputs": [
        {
          "internalType": "address",
          "name": "from",
          "type": "address"
        },
        {
          "internalType": "address",
          "name": "to",
          "type": "address"
        },
        {
          "internalType": "uint256",
          "name": "tokenId",
          "type": "uint256"
        }
      ],
      "name": "transferFrom",
      "outputs": [],
      "stateMutability": "nonpayable",
      "type": "function"
    },
    {
      "inputs": [
        {
          "internalType": "address",
          "name": "newOwner",
          "type": "address"
        }
      ],
      "name": "transferOwnership",
      "outputs": [],
      "stateMutability": "nonpayable",
      "type": "function"
    },
    {
      "inputs": [
        {
          "internalType": "uint256",
          "name": "",
          "type": "uint256"
        }
      ],
      "name": "whitelisted",
      "outputs": [
        {
          "internalType": "address",
          "name": "",
          "type": "address"
        }
      ],
      "stateMutability": "view",
      "type": "function",
      "constant": true
    },
    {
      "inputs": [
        {
          "internalType": "uint256",
          "name": "_mintAmount",
          "type": "uint256"
        }
      ],
      "name": "mint",
      "outputs": [],
      "stateMutability": "payable",
      "type": "function",
      "payable": true
    },
    {
      "inputs": [
        {
          "internalType": "address",
          "name": "to",
          "type": "address"
        },
        {
          "internalType": "uint256",
          "name": "tokenId",
          "type": "uint256"
        }
      ],
      "name": "safeMint",
      "outputs": [],
      "stateMutability": "nonpayable",
      "type": "function"
    },
    {
      "inputs": [
        {
          "internalType": "address",
          "name": "addr",
          "type": "address"
        }
      ],
      "name": "eligibility",
      "outputs": [
        {
          "internalType": "string",
          "name": "",
          "type": "string"
        }
      ],
      "stateMutability": "view",
      "type": "function",
      "constant": true
    },
    {
      "inputs": [
        {
          "internalType": "address",
          "name": "_owner",
          "type": "address"
        }
      ],
      "name": "walletOfOwner",
      "outputs": [
        {
          "internalType": "uint256[]",
          "name": "",
          "type": "uint256[]"
        }
      ],
      "stateMutability": "view",
      "type": "function",
      "constant": true
    },
    {
      "inputs": [
        {
          "internalType": "uint256",
          "name": "tokenId",
          "type": "uint256"
        }
      ],
      "name": "tokenURI",
      "outputs": [
        {
          "internalType": "string",
          "name": "",
          "type": "string"
        }
      ],
      "stateMutability": "view",
      "type": "function",
      "constant": true
    },
    {
      "inputs": [],
      "name": "reveal",
      "outputs": [],
      "stateMutability": "nonpayable",
      "type": "function"
    },
    {
      "inputs": [
        {
          "internalType": "uint256",
          "name": "_newCost",
          "type": "uint256"
        }
      ],
      "name": "setCost",
      "outputs": [],
      "stateMutability": "nonpayable",
      "type": "function"
    },
    {
      "inputs": [
        {
          "internalType": "uint256",
          "name": "_newmaxMintAmount",
          "type": "uint256"
        }
      ],
      "name": "setmaxMintAmount",
      "outputs": [],
      "stateMutability": "nonpayable",
      "type": "function"
    },
    {
      "inputs": [
        {
          "internalType": "string",
          "name": "_notRevealedURI",
          "type": "string"
        }
      ],
      "name": "setNotRevealedURI",
      "outputs": [],
      "stateMutability": "nonpayable",
      "type": "function"
    },
    {
      "inputs": [
        {
          "internalType": "string",
          "name": "_newBaseURI",
          "type": "string"
        }
      ],
      "name": "setBaseURI",
      "outputs": [],
      "stateMutability": "nonpayable",
      "type": "function"
    },
    {
      "inputs": [
        {
          "internalType": "string",
          "name": "_newBaseExtension",
          "type": "string"
        }
      ],
      "name": "setBaseExtension",
      "outputs": [],
      "stateMutability": "nonpayable",
      "type": "function"
    },
    {
      "inputs": [
        {
          "internalType": "bool",
          "name": "_state",
          "type": "bool"
        }
      ],
      "name": "pause",
      "outputs": [],
      "stateMutability": "nonpayable",
      "type": "function"
    },
    {
      "inputs": [],
      "name": "withdraw",
      "outputs": [],
      "stateMutability": "payable",
      "type": "function",
      "payable": true
    },
    {
      "inputs": [
        {
          "internalType": "bytes4",
          "name": "interfaceId",
          "type": "bytes4"
        }
      ],
      "name": "supportsInterface",
      "outputs": [
        {
          "internalType": "bool",
          "name": "",
          "type": "bool"
        }
      ],
      "stateMutability": "view",
      "type": "function",
      "constant": true
    }
  ],
  "bytecode": "0x60806040526040518060400160405280600581526020017f2e6a736f6e000000000000000000000000000000000000000000000000000000815250600c90805190602001906200005192919062000517565b50662386f26fc10000600d556009600e556001600f556001601060006101000a81548160ff0219169083151502179055506000601060016101000a81548160ff021916908315150217905550348015620000aa57600080fd5b506040518060400160405280601281526020017f526f636b6574656c657661746f72736e667400000000000000000000000000008152506040518060400160405280600381526020017f4e4654000000000000000000000000000000000000000000000000000000000081525081600090805190602001906200012f92919062000517565b5080600190805190602001906200014892919062000517565b5050506200016b6200015f6200044960201b60201c565b6200045160201b60201c565b6040518061014001604052807392a22470b1ec3de435da89e9f0b7183ceb2f371473ffffffffffffffffffffffffffffffffffffffff1673ffffffffffffffffffffffffffffffffffffffff168152602001724660331dd96bfe95ad4d32bf5ef7845a0bc68973ffffffffffffffffffffffffffffffffffffffff1673ffffffffffffffffffffffffffffffffffffffff16815260200173e578a5896931207aeb909ba12efc92b88422950a73ffffffffffffffffffffffffffffffffffffffff1673ffffffffffffffffffffffffffffffffffffffff168152602001734221ab4a5a1172ff48bb385d38fba3345342795773ffffffffffffffffffffffffffffffffffffffff1673ffffffffffffffffffffffffffffffffffffffff168152602001734eea12a0b97af76fabdc91b76b1960173dc15e8973ffffffffffffffffffffffffffffffffffffffff1673ffffffffffffffffffffffffffffffffffffffff168152602001736c9e61363f48feac41f9a2469e54994ce745e27473ffffffffffffffffffffffffffffffffffffffff1673ffffffffffffffffffffffffffffffffffffffff16815260200173df6efd03c762374c1a840558dd9d3554b4fa365873ffffffffffffffffffffffffffffffffffffffff1673ffffffffffffffffffffffffffffffffffffffff16815260200173326a276b46baad8d1019fed693b02ed0ad82fa0173ffffffffffffffffffffffffffffffffffffffff1673ffffffffffffffffffffffffffffffffffffffff1681526020017378adae76db2fcc462fe4ad58eb2ed87a1bf05f9f73ffffffffffffffffffffffffffffffffffffffff1673ffffffffffffffffffffffffffffffffffffffff1681526020017371c52f19d1cd0bc0a92663ab211e20a7a31ad5bc73ffffffffffffffffffffffffffffffffffffffff1673ffffffffffffffffffffffffffffffffffffffff16815250601290600a62000442929190620005a8565b50620006bb565b600033905090565b6000600a60009054906101000a900473ffffffffffffffffffffffffffffffffffffffff16905081600a60006101000a81548173ffffffffffffffffffffffffffffffffffffffff021916908373ffffffffffffffffffffffffffffffffffffffff1602179055508173ffffffffffffffffffffffffffffffffffffffff168173ffffffffffffffffffffffffffffffffffffffff167f8be0079c531659141344cd1fd0a4f28419497f9722a3daafe3b4186f6b6457e060405160405180910390a35050565b828054620005259062000685565b90600052602060002090601f01602090048101928262000549576000855562000595565b82601f106200056457805160ff191683800117855562000595565b8280016001018555821562000595579182015b828111156200059457825182559160200191906001019062000577565b5b509050620005a4919062000637565b5090565b82805482825590600052602060002090810192821562000624579160200282015b82811115620006235782518260006101000a81548173ffffffffffffffffffffffffffffffffffffffff021916908373ffffffffffffffffffffffffffffffffffffffff16021790555091602001919060010190620005c9565b5b50905062000633919062000637565b5090565b5b808211156200065257600081600090555060010162000638565b5090565b7f4e487b7100000000000000000000000000000000000000000000000000000000600052602260045260246000fd5b600060028204905060018216806200069e57607f821691505b60208210811415620006b557620006b462000656565b5b50919050565b6142fd80620006cb6000396000f3fe60806040526004361061023b5760003560e01c80635c975abb1161012e578063a22cb465116100ab578063d5abeb011161006f578063d5abeb0114610867578063da3ef23f14610892578063e985e9c5146108bb578063f2c4ce1e146108f8578063f2fde38b146109215761023b565b8063a22cb46514610796578063a475b5dd146107bf578063b88d4fde146107d6578063c6682862146107ff578063c87b56dd1461082a5761023b565b80637f00c7a6116100f25780637f00c7a6146106d25780638da5cb5b146106fb57806395d89b4114610726578063a0712d6814610751578063a14481941461076d5761023b565b80635c975abb146105d95780636352211e1461060457806363c36dec1461064157806370a082311461067e578063715018a6146106bb5761023b565b80632f745c59116101bc578063438b630011610180578063438b6300146104e257806344a0d68a1461051f5780634f6ccce714610548578063518302271461058557806355f804b3146105b05761023b565b80632f745c591461040c5780633ccfd60b146104495780633d4efe091461045357806342842e0e1461049057806342966c68146104b95761023b565b8063095ea7b311610203578063095ea7b31461033957806313faede61461036257806318160ddd1461038d578063239c70ae146103b857806323b872dd146103e35761023b565b806301ffc9a71461024057806302329a291461027d57806306fdde03146102a6578063081812fc146102d1578063081c8c441461030e575b600080fd5b34801561024c57600080fd5b5061026760048036038101906102629190612e41565b61094a565b6040516102749190612e89565b60405180910390f35b34801561028957600080fd5b506102a4600480360381019061029f9190612ed0565b61095c565b005b3480156102b257600080fd5b506102bb610981565b6040516102c89190612f96565b60405180910390f35b3480156102dd57600080fd5b506102f860048036038101906102f39190612fee565b610a13565b604051610305919061305c565b60405180910390f35b34801561031a57600080fd5b50610323610a59565b6040516103309190612f96565b60405180910390f35b34801561034557600080fd5b50610360600480360381019061035b91906130a3565b610ae7565b005b34801561036e57600080fd5b50610377610bff565b60405161038491906130f2565b60405180910390f35b34801561039957600080fd5b506103a2610c05565b6040516103af91906130f2565b60405180910390f35b3480156103c457600080fd5b506103cd610c12565b6040516103da91906130f2565b60405180910390f35b3480156103ef57600080fd5b5061040a6004803603810190610405919061310d565b610c18565b005b34801561041857600080fd5b50610433600480360381019061042e91906130a3565b610c78565b60405161044091906130f2565b60405180910390f35b610451610d1d565b005b34801561045f57600080fd5b5061047a60048036038101906104759190612fee565b610d9e565b604051610487919061305c565b60405180910390f35b34801561049c57600080fd5b506104b760048036038101906104b2919061310d565b610ddd565b005b3480156104c557600080fd5b506104e060048036038101906104db9190612fee565b610dfd565b005b3480156104ee57600080fd5b5061050960048036038101906105049190613160565b610e59565b604051610516919061324b565b60405180910390f35b34801561052b57600080fd5b5061054660048036038101906105419190612fee565b610f07565b005b34801561055457600080fd5b5061056f600480360381019061056a9190612fee565b610f19565b60405161057c91906130f2565b60405180910390f35b34801561059157600080fd5b5061059a610f8a565b6040516105a79190612e89565b60405180910390f35b3480156105bc57600080fd5b506105d760048036038101906105d291906133a2565b610f9d565b005b3480156105e557600080fd5b506105ee610fbf565b6040516105fb9190612e89565b60405180910390f35b34801561061057600080fd5b5061062b60048036038101906106269190612fee565b610fd2565b604051610638919061305c565b60405180910390f35b34801561064d57600080fd5b5061066860048036038101906106639190613160565b611084565b6040516106759190612f96565b60405180910390f35b34801561068a57600080fd5b506106a560048036038101906106a09190613160565b611198565b6040516106b291906130f2565b60405180910390f35b3480156106c757600080fd5b506106d0611250565b005b3480156106de57600080fd5b506106f960048036038101906106f49190612fee565b611264565b005b34801561070757600080fd5b50610710611276565b60405161071d919061305c565b60405180910390f35b34801561073257600080fd5b5061073b6112a0565b6040516107489190612f96565b60405180910390f35b61076b60048036038101906107669190612fee565b611332565b005b34801561077957600080fd5b50610794600480360381019061078f91906130a3565b61141e565b005b3480156107a257600080fd5b506107bd60048036038101906107b891906133eb565b6114c3565b005b3480156107cb57600080fd5b506107d46114d9565b005b3480156107e257600080fd5b506107fd60048036038101906107f891906134cc565b6114fe565b005b34801561080b57600080fd5b50610814611560565b6040516108219190612f96565b60405180910390f35b34801561083657600080fd5b50610851600480360381019061084c9190612fee565b6115ee565b60405161085e9190612f96565b60405180910390f35b34801561087357600080fd5b5061087c611747565b60405161088991906130f2565b60405180910390f35b34801561089e57600080fd5b506108b960048036038101906108b491906133a2565b61174d565b005b3480156108c757600080fd5b506108e260048036038101906108dd919061354f565b61176f565b6040516108ef9190612e89565b60405180910390f35b34801561090457600080fd5b5061091f600480360381019061091a91906133a2565b611803565b005b34801561092d57600080fd5b5061094860048036038101906109439190613160565b611825565b005b6000610955826118a9565b9050919050565b610964611923565b80601060006101000a81548160ff02191690831515021790555050565b606060008054610990906135be565b80601f01602080910402602001604051908101604052809291908181526020018280546109bc906135be565b8015610a095780601f106109de57610100808354040283529160200191610a09565b820191906000526020600020905b8154815290600101906020018083116109ec57829003601f168201915b5050505050905090565b6000610a1e826119a1565b6004600083815260200190815260200160002060009054906101000a900473ffffffffffffffffffffffffffffffffffffffff169050919050565b60118054610a66906135be565b80601f0160208091040260200160405190810160405280929190818152602001828054610a92906135be565b8015610adf5780601f10610ab457610100808354040283529160200191610adf565b820191906000526020600020905b815481529060010190602001808311610ac257829003601f168201915b505050505081565b6000610af282610fd2565b90508073ffffffffffffffffffffffffffffffffffffffff168373ffffffffffffffffffffffffffffffffffffffff161415610b63576040517f08c379a0000000000000000000000000000000000000000000000000000000008152600401610b5a90613662565b60405180910390fd5b8073ffffffffffffffffffffffffffffffffffffffff16610b826119ec565b73ffffffffffffffffffffffffffffffffffffffff161480610bb15750610bb081610bab6119ec565b61176f565b5b610bf0576040517f08c379a0000000000000000000000000000000000000000000000000000000008152600401610be7906136f4565b60405180910390fd5b610bfa83836119f4565b505050565b600d5481565b6000600880549050905090565b600f5481565b610c29610c236119ec565b82611aad565b610c68576040517f08c379a0000000000000000000000000000000000000000000000000000000008152600401610c5f90613786565b60405180910390fd5b610c73838383611b42565b505050565b6000610c8383611198565b8210610cc4576040517f08c379a0000000000000000000000000000000000000000000000000000000008152600401610cbb90613818565b60405180910390fd5b600660008473ffffffffffffffffffffffffffffffffffffffff1673ffffffffffffffffffffffffffffffffffffffff168152602001908152602001600020600083815260200190815260200160002054905092915050565b610d25611923565b60003373ffffffffffffffffffffffffffffffffffffffff1647604051610d4b90613869565b60006040518083038185875af1925050503d8060008114610d88576040519150601f19603f3d011682016040523d82523d6000602084013e610d8d565b606091505b5050905080610d9b57600080fd5b50565b60128181548110610dae57600080fd5b906000526020600020016000915054906101000a900473ffffffffffffffffffffffffffffffffffffffff1681565b610df8838383604051806020016040528060008152506114fe565b505050565b610e0e610e086119ec565b82611aad565b610e4d576040517f08c379a0000000000000000000000000000000000000000000000000000000008152600401610e4490613786565b60405180910390fd5b610e5681611da9565b50565b60606000610e6683611198565b905060008167ffffffffffffffff811115610e8457610e83613277565b5b604051908082528060200260200182016040528015610eb25781602001602082028036833780820191505090505b50905060005b82811015610efc57610eca8582610c78565b828281518110610edd57610edc61387e565b5b6020026020010181815250508080610ef4906138dc565b915050610eb8565b508092505050919050565b610f0f611923565b80600d8190555050565b6000610f23610c05565b8210610f64576040517f08c379a0000000000000000000000000000000000000000000000000000000008152600401610f5b90613997565b60405180910390fd5b60088281548110610f7857610f7761387e565b5b90600052602060002001549050919050565b601060019054906101000a900460ff1681565b610fa5611923565b80600b9080519060200190610fbb929190612d32565b5050565b601060009054906101000a900460ff1681565b6000806002600084815260200190815260200160002060009054906101000a900473ffffffffffffffffffffffffffffffffffffffff169050600073ffffffffffffffffffffffffffffffffffffffff168173ffffffffffffffffffffffffffffffffffffffff16141561107b576040517f08c379a000000000000000000000000000000000000000000000000000000000815260040161107290613a03565b60405180910390fd5b80915050919050565b606060005b60128054905081101561115957601281815481106110aa576110a961387e565b5b9060005260206000200160009054906101000a900473ffffffffffffffffffffffffffffffffffffffff1673ffffffffffffffffffffffffffffffffffffffff168373ffffffffffffffffffffffffffffffffffffffff161415611146576040518060400160405280600981526020017f20456c656769626c650000000000000000000000000000000000000000000000815250915050611193565b8080611151906138dc565b915050611089565b506040518060400160405280600d81526020017f204e6f7420456c656769626c650000000000000000000000000000000000000081525090505b919050565b60008073ffffffffffffffffffffffffffffffffffffffff168273ffffffffffffffffffffffffffffffffffffffff161415611209576040517f08c379a000000000000000000000000000000000000000000000000000000000815260040161120090613a95565b60405180910390fd5b600360008373ffffffffffffffffffffffffffffffffffffffff1673ffffffffffffffffffffffffffffffffffffffff168152602001908152602001600020549050919050565b611258611923565b6112626000611ec6565b565b61126c611923565b80600f8190555050565b6000600a60009054906101000a900473ffffffffffffffffffffffffffffffffffffffff16905090565b6060600180546112af906135be565b80601f01602080910402602001604051908101604052809291908181526020018280546112db906135be565b80156113285780601f106112fd57610100808354040283529160200191611328565b820191906000526020600020905b81548152906001019060200180831161130b57829003601f168201915b5050505050905090565b600061133c610c05565b9050601060009054906101000a900460ff161561135857600080fd5b6000821161136557600080fd5b600f5482111561137457600080fd5b600e5482826113839190613ab5565b111561138e57600080fd5b611396611276565b73ffffffffffffffffffffffffffffffffffffffff163373ffffffffffffffffffffffffffffffffffffffff16146113e35781600d546113d69190613b0b565b3410156113e257600080fd5b5b6000600190505b828111611419576114063382846114019190613ab5565b611f8c565b8080611411906138dc565b9150506113ea565b505050565b60005b6012805490508110156114be57601281815481106114425761144161387e565b5b9060005260206000200160009054906101000a900473ffffffffffffffffffffffffffffffffffffffff1673ffffffffffffffffffffffffffffffffffffffff168373ffffffffffffffffffffffffffffffffffffffff1614156114ab576114aa8383611f8c565b5b80806114b6906138dc565b915050611421565b505050565b6114d56114ce6119ec565b8383611faa565b5050565b6114e1611923565b6001601060016101000a81548160ff021916908315150217905550565b61150f6115096119ec565b83611aad565b61154e576040517f08c379a000000000000000000000000000000000000000000000000000000000815260040161154590613786565b60405180910390fd5b61155a84848484612117565b50505050565b600c805461156d906135be565b80601f0160208091040260200160405190810160405280929190818152602001828054611599906135be565b80156115e65780601f106115bb576101008083540402835291602001916115e6565b820191906000526020600020905b8154815290600101906020018083116115c957829003601f168201915b505050505081565b60606115f982612173565b611638576040517f08c379a000000000000000000000000000000000000000000000000000000000815260040161162f90613bd7565b60405180910390fd5b60001515601060019054906101000a900460ff16151514156116e65760118054611661906135be565b80601f016020809104026020016040519081016040528092919081815260200182805461168d906135be565b80156116da5780601f106116af576101008083540402835291602001916116da565b820191906000526020600020905b8154815290600101906020018083116116bd57829003601f168201915b50505050509050611742565b60006116f06121df565b90506000815111611710576040518060200160405280600081525061173e565b8061171a84612271565b600c60405160200161172e93929190613cc7565b6040516020818303038152906040525b9150505b919050565b600e5481565b611755611923565b80600c908051906020019061176b929190612d32565b5050565b6000600560008473ffffffffffffffffffffffffffffffffffffffff1673ffffffffffffffffffffffffffffffffffffffff16815260200190815260200160002060008373ffffffffffffffffffffffffffffffffffffffff1673ffffffffffffffffffffffffffffffffffffffff16815260200190815260200160002060009054906101000a900460ff16905092915050565b61180b611923565b8060119080519060200190611821929190612d32565b5050565b61182d611923565b600073ffffffffffffffffffffffffffffffffffffffff168173ffffffffffffffffffffffffffffffffffffffff16141561189d576040517f08c379a000000000000000000000000000000000000000000000000000000000815260040161189490613d6a565b60405180910390fd5b6118a681611ec6565b50565b60007f780e9d63000000000000000000000000000000000000000000000000000000007bffffffffffffffffffffffffffffffffffffffffffffffffffffffff1916827bffffffffffffffffffffffffffffffffffffffffffffffffffffffff1916148061191c575061191b826123d2565b5b9050919050565b61192b6119ec565b73ffffffffffffffffffffffffffffffffffffffff16611949611276565b73ffffffffffffffffffffffffffffffffffffffff161461199f576040517f08c379a000000000000000000000000000000000000000000000000000000000815260040161199690613dd6565b60405180910390fd5b565b6119aa81612173565b6119e9576040517f08c379a00000000000000000000000000000000000000000000000000000000081526004016119e090613a03565b60405180910390fd5b50565b600033905090565b816004600083815260200190815260200160002060006101000a81548173ffffffffffffffffffffffffffffffffffffffff021916908373ffffffffffffffffffffffffffffffffffffffff160217905550808273ffffffffffffffffffffffffffffffffffffffff16611a6783610fd2565b73ffffffffffffffffffffffffffffffffffffffff167f8c5be1e5ebec7d5bd14f71427d1e84f3dd0314c0f7b2291e5b200ac8c7c3b92560405160405180910390a45050565b600080611ab983610fd2565b90508073ffffffffffffffffffffffffffffffffffffffff168473ffffffffffffffffffffffffffffffffffffffff161480611afb5750611afa818561176f565b5b80611b3957508373ffffffffffffffffffffffffffffffffffffffff16611b2184610a13565b73ffffffffffffffffffffffffffffffffffffffff16145b91505092915050565b8273ffffffffffffffffffffffffffffffffffffffff16611b6282610fd2565b73ffffffffffffffffffffffffffffffffffffffff1614611bb8576040517f08c379a0000000000000000000000000000000000000000000000000000000008152600401611baf90613e68565b60405180910390fd5b600073ffffffffffffffffffffffffffffffffffffffff168273ffffffffffffffffffffffffffffffffffffffff161415611c28576040517f08c379a0000000000000000000000000000000000000000000000000000000008152600401611c1f90613efa565b60405180910390fd5b611c338383836124b4565b611c3e6000826119f4565b6001600360008573ffffffffffffffffffffffffffffffffffffffff1673ffffffffffffffffffffffffffffffffffffffff1681526020019081526020016000206000828254611c8e9190613f1a565b925050819055506001600360008473ffffffffffffffffffffffffffffffffffffffff1673ffffffffffffffffffffffffffffffffffffffff1681526020019081526020016000206000828254611ce59190613ab5565b92505081905550816002600083815260200190815260200160002060006101000a81548173ffffffffffffffffffffffffffffffffffffffff021916908373ffffffffffffffffffffffffffffffffffffffff160217905550808273ffffffffffffffffffffffffffffffffffffffff168473ffffffffffffffffffffffffffffffffffffffff167fddf252ad1be2c89b69c2b068fc378daa952ba7f163c4a11628f55a4df523b3ef60405160405180910390a4611da48383836124c4565b505050565b6000611db482610fd2565b9050611dc2816000846124b4565b611dcd6000836119f4565b6001600360008373ffffffffffffffffffffffffffffffffffffffff1673ffffffffffffffffffffffffffffffffffffffff1681526020019081526020016000206000828254611e1d9190613f1a565b925050819055506002600083815260200190815260200160002060006101000a81549073ffffffffffffffffffffffffffffffffffffffff021916905581600073ffffffffffffffffffffffffffffffffffffffff168273ffffffffffffffffffffffffffffffffffffffff167fddf252ad1be2c89b69c2b068fc378daa952ba7f163c4a11628f55a4df523b3ef60405160405180910390a4611ec2816000846124c4565b5050565b6000600a60009054906101000a900473ffffffffffffffffffffffffffffffffffffffff16905081600a60006101000a81548173ffffffffffffffffffffffffffffffffffffffff021916908373ffffffffffffffffffffffffffffffffffffffff1602179055508173ffffffffffffffffffffffffffffffffffffffff168173ffffffffffffffffffffffffffffffffffffffff167f8be0079c531659141344cd1fd0a4f28419497f9722a3daafe3b4186f6b6457e060405160405180910390a35050565b611fa68282604051806020016040528060008152506124c9565b5050565b8173ffffffffffffffffffffffffffffffffffffffff168373ffffffffffffffffffffffffffffffffffffffff161415612019576040517f08c379a000000000000000000000000000000000000000000000000000000000815260040161201090613f9a565b60405180910390fd5b80600560008573ffffffffffffffffffffffffffffffffffffffff1673ffffffffffffffffffffffffffffffffffffffff16815260200190815260200160002060008473ffffffffffffffffffffffffffffffffffffffff1673ffffffffffffffffffffffffffffffffffffffff16815260200190815260200160002060006101000a81548160ff0219169083151502179055508173ffffffffffffffffffffffffffffffffffffffff168373ffffffffffffffffffffffffffffffffffffffff167f17307eab39ab6107e8899845ad3d59bd9653f200f220920489ca2b5937696c318360405161210a9190612e89565b60405180910390a3505050565b612122848484611b42565b61212e84848484612524565b61216d576040517f08c379a00000000000000000000000000000000000000000000000000000000081526004016121649061402c565b60405180910390fd5b50505050565b60008073ffffffffffffffffffffffffffffffffffffffff166002600084815260200190815260200160002060009054906101000a900473ffffffffffffffffffffffffffffffffffffffff1673ffffffffffffffffffffffffffffffffffffffff1614159050919050565b6060600b80546121ee906135be565b80601f016020809104026020016040519081016040528092919081815260200182805461221a906135be565b80156122675780601f1061223c57610100808354040283529160200191612267565b820191906000526020600020905b81548152906001019060200180831161224a57829003601f168201915b5050505050905090565b606060008214156122b9576040518060400160405280600181526020017f300000000000000000000000000000000000000000000000000000000000000081525090506123cd565b600082905060005b600082146122eb5780806122d4906138dc565b915050600a826122e4919061407b565b91506122c1565b60008167ffffffffffffffff81111561230757612306613277565b5b6040519080825280601f01601f1916602001820160405280156123395781602001600182028036833780820191505090505b5090505b600085146123c6576001826123529190613f1a565b9150600a8561236191906140ac565b603061236d9190613ab5565b60f81b8183815181106123835761238261387e565b5b60200101907effffffffffffffffffffffffffffffffffffffffffffffffffffffffffffff1916908160001a905350600a856123bf919061407b565b945061233d565b8093505050505b919050565b60007f80ac58cd000000000000000000000000000000000000000000000000000000007bffffffffffffffffffffffffffffffffffffffffffffffffffffffff1916827bffffffffffffffffffffffffffffffffffffffffffffffffffffffff1916148061249d57507f5b5e139f000000000000000000000000000000000000000000000000000000007bffffffffffffffffffffffffffffffffffffffffffffffffffffffff1916827bffffffffffffffffffffffffffffffffffffffffffffffffffffffff1916145b806124ad57506124ac826126ac565b5b9050919050565b6124bf838383612716565b505050565b505050565b6124d3838361282a565b6124e06000848484612524565b61251f576040517f08c379a00000000000000000000000000000000000000000000000000000000081526004016125169061402c565b60405180910390fd5b505050565b60006125458473ffffffffffffffffffffffffffffffffffffffff16612a04565b1561269f578373ffffffffffffffffffffffffffffffffffffffff1663150b7a0261256e6119ec565b8786866040518563ffffffff1660e01b81526004016125909493929190614132565b6020604051808303816000875af19250505080156125cc57506040513d601f19601f820116820180604052508101906125c99190614193565b60015b61264f573d80600081146125fc576040519150601f19603f3d011682016040523d82523d6000602084013e612601565b606091505b50600081511415612647576040517f08c379a000000000000000000000000000000000000000000000000000000000815260040161263e9061402c565b60405180910390fd5b805181602001fd5b63150b7a0260e01b7bffffffffffffffffffffffffffffffffffffffffffffffffffffffff1916817bffffffffffffffffffffffffffffffffffffffffffffffffffffffff1916149150506126a4565b600190505b949350505050565b60007f01ffc9a7000000000000000000000000000000000000000000000000000000007bffffffffffffffffffffffffffffffffffffffffffffffffffffffff1916827bffffffffffffffffffffffffffffffffffffffffffffffffffffffff1916149050919050565b612721838383612a27565b600073ffffffffffffffffffffffffffffffffffffffff168373ffffffffffffffffffffffffffffffffffffffff1614156127645761275f81612a2c565b6127a3565b8173ffffffffffffffffffffffffffffffffffffffff168373ffffffffffffffffffffffffffffffffffffffff16146127a2576127a18382612a75565b5b5b600073ffffffffffffffffffffffffffffffffffffffff168273ffffffffffffffffffffffffffffffffffffffff1614156127e6576127e181612be2565b612825565b8273ffffffffffffffffffffffffffffffffffffffff168273ffffffffffffffffffffffffffffffffffffffff1614612824576128238282612cb3565b5b5b505050565b600073ffffffffffffffffffffffffffffffffffffffff168273ffffffffffffffffffffffffffffffffffffffff16141561289a576040517f08c379a00000000000000000000000000000000000000000000000000000000081526004016128919061420c565b60405180910390fd5b6128a381612173565b156128e3576040517f08c379a00000000000000000000000000000000000000000000000000000000081526004016128da90614278565b60405180910390fd5b6128ef600083836124b4565b6001600360008473ffffffffffffffffffffffffffffffffffffffff1673ffffffffffffffffffffffffffffffffffffffff168152602001908152602001600020600082825461293f9190613ab5565b92505081905550816002600083815260200190815260200160002060006101000a81548173ffffffffffffffffffffffffffffffffffffffff021916908373ffffffffffffffffffffffffffffffffffffffff160217905550808273ffffffffffffffffffffffffffffffffffffffff16600073ffffffffffffffffffffffffffffffffffffffff167fddf252ad1be2c89b69c2b068fc378daa952ba7f163c4a11628f55a4df523b3ef60405160405180910390a4612a00600083836124c4565b5050565b6000808273ffffffffffffffffffffffffffffffffffffffff163b119050919050565b505050565b6008805490506009600083815260200190815260200160002081905550600881908060018154018082558091505060019003906000526020600020016000909190919091505550565b60006001612a8284611198565b612a8c9190613f1a565b9050600060076000848152602001908152602001600020549050818114612b71576000600660008673ffffffffffffffffffffffffffffffffffffffff1673ffffffffffffffffffffffffffffffffffffffff168152602001908152602001600020600084815260200190815260200160002054905080600660008773ffffffffffffffffffffffffffffffffffffffff1673ffffffffffffffffffffffffffffffffffffffff168152602001908152602001600020600084815260200190815260200160002081905550816007600083815260200190815260200160002081905550505b6007600084815260200190815260200160002060009055600660008573ffffffffffffffffffffffffffffffffffffffff1673ffffffffffffffffffffffffffffffffffffffff16815260200190815260200160002060008381526020019081526020016000206000905550505050565b60006001600880549050612bf69190613f1a565b9050600060096000848152602001908152602001600020549050600060088381548110612c2657612c2561387e565b5b906000526020600020015490508060088381548110612c4857612c4761387e565b5b906000526020600020018190555081600960008381526020019081526020016000208190555060096000858152602001908152602001600020600090556008805480612c9757612c96614298565b5b6001900381819060005260206000200160009055905550505050565b6000612cbe83611198565b905081600660008573ffffffffffffffffffffffffffffffffffffffff1673ffffffffffffffffffffffffffffffffffffffff168152602001908152602001600020600083815260200190815260200160002081905550806007600084815260200190815260200160002081905550505050565b828054612d3e906135be565b90600052602060002090601f016020900481019282612d605760008555612da7565b82601f10612d7957805160ff1916838001178555612da7565b82800160010185558215612da7579182015b82811115612da6578251825591602001919060010190612d8b565b5b509050612db49190612db8565b5090565b5b80821115612dd1576000816000905550600101612db9565b5090565b6000604051905090565b600080fd5b600080fd5b60007fffffffff0000000000000000000000000000000000000000000000000000000082169050919050565b612e1e81612de9565b8114612e2957600080fd5b50565b600081359050612e3b81612e15565b92915050565b600060208284031215612e5757612e56612ddf565b5b6000612e6584828501612e2c565b91505092915050565b60008115159050919050565b612e8381612e6e565b82525050565b6000602082019050612e9e6000830184612e7a565b92915050565b612ead81612e6e565b8114612eb857600080fd5b50565b600081359050612eca81612ea4565b92915050565b600060208284031215612ee657612ee5612ddf565b5b6000612ef484828501612ebb565b91505092915050565b600081519050919050565b600082825260208201905092915050565b60005b83811015612f37578082015181840152602081019050612f1c565b83811115612f46576000848401525b50505050565b6000601f19601f8301169050919050565b6000612f6882612efd565b612f728185612f08565b9350612f82818560208601612f19565b612f8b81612f4c565b840191505092915050565b60006020820190508181036000830152612fb08184612f5d565b905092915050565b6000819050919050565b612fcb81612fb8565b8114612fd657600080fd5b50565b600081359050612fe881612fc2565b92915050565b60006020828403121561300457613003612ddf565b5b600061301284828501612fd9565b91505092915050565b600073ffffffffffffffffffffffffffffffffffffffff82169050919050565b60006130468261301b565b9050919050565b6130568161303b565b82525050565b6000602082019050613071600083018461304d565b92915050565b6130808161303b565b811461308b57600080fd5b50565b60008135905061309d81613077565b92915050565b600080604083850312156130ba576130b9612ddf565b5b60006130c88582860161308e565b92505060206130d985828601612fd9565b9150509250929050565b6130ec81612fb8565b82525050565b600060208201905061310760008301846130e3565b92915050565b60008060006060848603121561312657613125612ddf565b5b60006131348682870161308e565b93505060206131458682870161308e565b925050604061315686828701612fd9565b9150509250925092565b60006020828403121561317657613175612ddf565b5b60006131848482850161308e565b91505092915050565b600081519050919050565b600082825260208201905092915050565b6000819050602082019050919050565b6131c281612fb8565b82525050565b60006131d483836131b9565b60208301905092915050565b6000602082019050919050565b60006131f88261318d565b6132028185613198565b935061320d836131a9565b8060005b8381101561323e57815161322588826131c8565b9750613230836131e0565b925050600181019050613211565b5085935050505092915050565b6000602082019050818103600083015261326581846131ed565b905092915050565b600080fd5b600080fd5b7f4e487b7100000000000000000000000000000000000000000000000000000000600052604160045260246000fd5b6132af82612f4c565b810181811067ffffffffffffffff821117156132ce576132cd613277565b5b80604052505050565b60006132e1612dd5565b90506132ed82826132a6565b919050565b600067ffffffffffffffff82111561330d5761330c613277565b5b61331682612f4c565b9050602081019050919050565b82818337600083830152505050565b6000613345613340846132f2565b6132d7565b90508281526020810184848401111561336157613360613272565b5b61336c848285613323565b509392505050565b600082601f8301126133895761338861326d565b5b8135613399848260208601613332565b91505092915050565b6000602082840312156133b8576133b7612ddf565b5b600082013567ffffffffffffffff8111156133d6576133d5612de4565b5b6133e284828501613374565b91505092915050565b6000806040838503121561340257613401612ddf565b5b60006134108582860161308e565b925050602061342185828601612ebb565b9150509250929050565b600067ffffffffffffffff82111561344657613445613277565b5b61344f82612f4c565b9050602081019050919050565b600061346f61346a8461342b565b6132d7565b90508281526020810184848401111561348b5761348a613272565b5b613496848285613323565b509392505050565b600082601f8301126134b3576134b261326d565b5b81356134c384826020860161345c565b91505092915050565b600080600080608085870312156134e6576134e5612ddf565b5b60006134f48782880161308e565b94505060206135058782880161308e565b935050604061351687828801612fd9565b925050606085013567ffffffffffffffff81111561353757613536612de4565b5b6135438782880161349e565b91505092959194509250565b6000806040838503121561356657613565612ddf565b5b60006135748582860161308e565b92505060206135858582860161308e565b9150509250929050565b7f4e487b7100000000000000000000000000000000000000000000000000000000600052602260045260246000fd5b600060028204905060018216806135d657607f821691505b602082108114156135ea576135e961358f565b5b50919050565b7f4552433732313a20617070726f76616c20746f2063757272656e74206f776e6560008201527f7200000000000000000000000000000000000000000000000000000000000000602082015250565b600061364c602183612f08565b9150613657826135f0565b604082019050919050565b6000602082019050818103600083015261367b8161363f565b9050919050565b7f4552433732313a20617070726f76652063616c6c6572206973206e6f7420746f60008201527f6b656e206f776e6572206e6f7220617070726f76656420666f7220616c6c0000602082015250565b60006136de603e83612f08565b91506136e982613682565b604082019050919050565b6000602082019050818103600083015261370d816136d1565b9050919050565b7f4552433732313a2063616c6c6572206973206e6f7420746f6b656e206f776e6560008201527f72206e6f7220617070726f766564000000000000000000000000000000000000602082015250565b6000613770602e83612f08565b915061377b82613714565b604082019050919050565b6000602082019050818103600083015261379f81613763565b9050919050565b7f455243373231456e756d657261626c653a206f776e657220696e646578206f7560008201527f74206f6620626f756e6473000000000000000000000000000000000000000000602082015250565b6000613802602b83612f08565b915061380d826137a6565b604082019050919050565b60006020820190508181036000830152613831816137f5565b9050919050565b600081905092915050565b50565b6000613853600083613838565b915061385e82613843565b600082019050919050565b600061387482613846565b9150819050919050565b7f4e487b7100000000000000000000000000000000000000000000000000000000600052603260045260246000fd5b7f4e487b7100000000000000000000000000000000000000000000000000000000600052601160045260246000fd5b60006138e782612fb8565b91507fffffffffffffffffffffffffffffffffffffffffffffffffffffffffffffffff82141561391a576139196138ad565b5b600182019050919050565b7f455243373231456e756d657261626c653a20676c6f62616c20696e646578206f60008201527f7574206f6620626f756e64730000000000000000000000000000000000000000602082015250565b6000613981602c83612f08565b915061398c82613925565b604082019050919050565b600060208201905081810360008301526139b081613974565b9050919050565b7f4552433732313a20696e76616c696420746f6b656e2049440000000000000000600082015250565b60006139ed601883612f08565b91506139f8826139b7565b602082019050919050565b60006020820190508181036000830152613a1c816139e0565b9050919050565b7f4552433732313a2061646472657373207a65726f206973206e6f74206120766160008201527f6c6964206f776e65720000000000000000000000000000000000000000000000602082015250565b6000613a7f602983612f08565b9150613a8a82613a23565b604082019050919050565b60006020820190508181036000830152613aae81613a72565b9050919050565b6000613ac082612fb8565b9150613acb83612fb8565b9250827fffffffffffffffffffffffffffffffffffffffffffffffffffffffffffffffff03821115613b0057613aff6138ad565b5b828201905092915050565b6000613b1682612fb8565b9150613b2183612fb8565b9250817fffffffffffffffffffffffffffffffffffffffffffffffffffffffffffffffff0483118215151615613b5a57613b596138ad565b5b828202905092915050565b7f4552433732314d657461646174613a2055524920717565727920666f72206e6f60008201527f6e6578697374656e7420746f6b656e0000000000000000000000000000000000602082015250565b6000613bc1602f83612f08565b9150613bcc82613b65565b604082019050919050565b60006020820190508181036000830152613bf081613bb4565b9050919050565b600081905092915050565b6000613c0d82612efd565b613c178185613bf7565b9350613c27818560208601612f19565b80840191505092915050565b60008190508160005260206000209050919050565b60008154613c55816135be565b613c5f8186613bf7565b94506001821660008114613c7a5760018114613c8b57613cbe565b60ff19831686528186019350613cbe565b613c9485613c33565b60005b83811015613cb657815481890152600182019150602081019050613c97565b838801955050505b50505092915050565b6000613cd38286613c02565b9150613cdf8285613c02565b9150613ceb8284613c48565b9150819050949350505050565b7f4f776e61626c653a206e6577206f776e657220697320746865207a65726f206160008201527f6464726573730000000000000000000000000000000000000000000000000000602082015250565b6000613d54602683612f08565b9150613d5f82613cf8565b604082019050919050565b60006020820190508181036000830152613d8381613d47565b9050919050565b7f4f776e61626c653a2063616c6c6572206973206e6f7420746865206f776e6572600082015250565b6000613dc0602083612f08565b9150613dcb82613d8a565b602082019050919050565b60006020820190508181036000830152613def81613db3565b9050919050565b7f4552433732313a207472616e736665722066726f6d20696e636f72726563742060008201527f6f776e6572000000000000000000000000000000000000000000000000000000602082015250565b6000613e52602583612f08565b9150613e5d82613df6565b604082019050919050565b60006020820190508181036000830152613e8181613e45565b9050919050565b7f4552433732313a207472616e7366657220746f20746865207a65726f2061646460008201527f7265737300000000000000000000000000000000000000000000000000000000602082015250565b6000613ee4602483612f08565b9150613eef82613e88565b604082019050919050565b60006020820190508181036000830152613f1381613ed7565b9050919050565b6000613f2582612fb8565b9150613f3083612fb8565b925082821015613f4357613f426138ad565b5b828203905092915050565b7f4552433732313a20617070726f766520746f2063616c6c657200000000000000600082015250565b6000613f84601983612f08565b9150613f8f82613f4e565b602082019050919050565b60006020820190508181036000830152613fb381613f77565b9050919050565b7f4552433732313a207472616e7366657220746f206e6f6e20455243373231526560008201527f63656976657220696d706c656d656e7465720000000000000000000000000000602082015250565b6000614016603283612f08565b915061402182613fba565b604082019050919050565b6000602082019050818103600083015261404581614009565b9050919050565b7f4e487b7100000000000000000000000000000000000000000000000000000000600052601260045260246000fd5b600061408682612fb8565b915061409183612fb8565b9250826140a1576140a061404c565b5b828204905092915050565b60006140b782612fb8565b91506140c283612fb8565b9250826140d2576140d161404c565b5b828206905092915050565b600081519050919050565b600082825260208201905092915050565b6000614104826140dd565b61410e81856140e8565b935061411e818560208601612f19565b61412781612f4c565b840191505092915050565b6000608082019050614147600083018761304d565b614154602083018661304d565b61416160408301856130e3565b818103606083015261417381846140f9565b905095945050505050565b60008151905061418d81612e15565b92915050565b6000602082840312156141a9576141a8612ddf565b5b60006141b78482850161417e565b91505092915050565b7f4552433732313a206d696e7420746f20746865207a65726f2061646472657373600082015250565b60006141f6602083612f08565b9150614201826141c0565b602082019050919050565b60006020820190508181036000830152614225816141e9565b9050919050565b7f4552433732313a20746f6b656e20616c7265616479206d696e74656400000000600082015250565b6000614262601c83612f08565b915061426d8261422c565b602082019050919050565b6000602082019050818103600083015261429181614255565b9050919050565b7f4e487b7100000000000000000000000000000000000000000000000000000000600052603160045260246000fdfea264697066735822122022d0b8969adb5dfa06b7d851d15f5ba250a2436a3ed806eed158682324bcf47664736f6c634300080a0033",
  "immutableReferences": {},
  "source": "//SPDX-License-Identifier: GPL-3.0\r\npragma solidity >=0.7.0 <0.9.0;\r\nimport \"@openzeppelin/contracts/token/ERC721/ERC721.sol\";\r\nimport \"@openzeppelin/contracts/token/ERC721/extensions/ERC721Enumerable.sol\";\r\nimport \"@openzeppelin/contracts/token/ERC721/extensions/ERC721Burnable.sol\";\r\nimport \"@openzeppelin/contracts/access/Ownable.sol\";\r\n\r\ncontract RocketElevator is  ERC721, ERC721Enumerable, ERC721Burnable, Ownable {\r\n  using Strings for uint256;\r\n\r\n  string baseURI;\r\n  string public baseExtension = \".json\";\r\n  uint256 public cost = 0.01 ether;\r\n  uint256 public maxSupply = 9;\r\n  uint256 public maxMintAmount = 1;\r\n  bool public paused = true;\r\n  bool public revealed = false;\r\n  string public notRevealedUri;\r\n  address[] public whitelisted;\r\n\r\n\r\n  constructor(\r\n    // string memory _name,\r\n    // string memory _symbol,\r\n    // string memory _initBaseURI,\r\n    // string memory _initNotRevealedUri\r\n  ) ERC721(\"Rocketelevatorsnft\", \"NFT\") {   \r\n    // setBaseURI(_initBaseURI);\r\n    // setNotRevealedURI(_initNotRevealedUri);\r\n    whitelisted = [0x92A22470b1eC3DE435Da89E9f0B7183cEB2f3714,0x004660331dd96BfE95Ad4D32bf5EF7845a0Bc689,0xe578a5896931207AEb909Ba12EFc92b88422950a,0x4221ab4A5A1172FF48bB385d38fBa33453427957,0x4eeA12a0B97af76FaBDC91b76B1960173DC15e89,0x6c9e61363F48fEAc41f9a2469E54994Ce745E274,0xDf6EfD03c762374c1a840558dD9d3554B4fa3658,0x326a276b46BAaD8d1019fEd693B02ED0ad82FA01,0x78aDae76DB2FcC462Fe4AD58Eb2ED87a1bF05F9f,0x71c52f19d1cd0bC0a92663ab211E20a7a31Ad5BC];\r\n  }\r\n\r\n  // internal\r\n  function _baseURI() internal view virtual override returns (string memory) {\r\n    return baseURI;\r\n  }\r\n\r\n  // public\r\n  function mint(uint256 _mintAmount) public payable {\r\n    uint256 supply = totalSupply();\r\n    require(!paused);\r\n    require(_mintAmount > 0);\r\n    require(_mintAmount <= maxMintAmount);\r\n    require(supply + _mintAmount <= maxSupply);\r\n\r\n    if (msg.sender != owner()) {\r\n        \r\n      require(msg.value >= cost * _mintAmount);\r\n    }\r\n\r\n    for (uint256 i = 1; i <= _mintAmount; i++) {\r\n      _safeMint(msg.sender, supply + i);\r\n    }\r\n  }\r\n\r\n  function safeMint(address to, uint256 tokenId) public  {\r\n      for(uint256 i = 0; i < whitelisted.length; i++){\r\n          if(to == whitelisted[i]){\r\n        _safeMint(to, tokenId);\r\n        }        \r\n      }\r\n      \r\n    }\r\n\r\n    function eligibility(address addr)public view returns (string memory) {\r\n        for(uint256 i = 0; i < whitelisted.length; i++){\r\n            if(addr == whitelisted[i]){\r\n                return \" Elegible\";\r\n            }\r\n        }\r\n         return \" Not Elegible\";\r\n    }\r\n    \r\n\r\n  function walletOfOwner(address _owner)\r\n    public\r\n    view\r\n    returns (uint256[] memory)\r\n  {\r\n    uint256 ownerTokenCount = balanceOf(_owner);\r\n    uint256[] memory tokenIds = new uint256[](ownerTokenCount);\r\n    for (uint256 i; i < ownerTokenCount; i++) {\r\n      tokenIds[i] = tokenOfOwnerByIndex(_owner, i);\r\n    }\r\n    return tokenIds;\r\n  }\r\n\r\n  function tokenURI(uint256 tokenId)\r\n    public\r\n    view\r\n    virtual\r\n    override\r\n    returns (string memory)\r\n  {\r\n    require(\r\n      _exists(tokenId),\r\n      \"ERC721Metadata: URI query for nonexistent token\"\r\n    );\r\n    \r\n    if(revealed == false) {\r\n        return notRevealedUri;\r\n    }\r\n\r\n    string memory currentBaseURI = _baseURI();\r\n    return bytes(currentBaseURI).length > 0\r\n        ? string(abi.encodePacked(currentBaseURI, tokenId.toString(), baseExtension))\r\n        : \"\";\r\n  }\r\n\r\n  //only owner\r\n  function reveal() public onlyOwner() {\r\n      revealed = true;\r\n  }\r\n  \r\n  function setCost(uint256 _newCost) public onlyOwner() {\r\n    cost = _newCost;\r\n  }\r\n\r\n  function setmaxMintAmount(uint256 _newmaxMintAmount) public onlyOwner() {\r\n    maxMintAmount = _newmaxMintAmount;\r\n  }\r\n  \r\n  function setNotRevealedURI(string memory _notRevealedURI) public onlyOwner {\r\n    notRevealedUri = _notRevealedURI;\r\n  }\r\n\r\n  function setBaseURI(string memory _newBaseURI) public onlyOwner {\r\n    baseURI = _newBaseURI;\r\n  }\r\n\r\n  function setBaseExtension(string memory _newBaseExtension) public onlyOwner {\r\n    baseExtension = _newBaseExtension;\r\n  }\r\n\r\n  function pause(bool _state) public onlyOwner {\r\n    paused = _state;\r\n  }\r\n \r\n  function withdraw() public payable onlyOwner {\r\n    (bool success, ) = payable(msg.sender).call{value: address(this).balance}(\"\");\r\n    require(success);\r\n  }\r\n  function _beforeTokenTransfer(address from, address to, uint256 tokenId)\r\n        internal\r\n        override(ERC721, ERC721Enumerable)\r\n    {\r\n        super._beforeTokenTransfer(from, to, tokenId);\r\n    }\r\n\r\n    function supportsInterface(bytes4 interfaceId)\r\n        public\r\n        view\r\n        override(ERC721, ERC721Enumerable)\r\n        returns (bool)\r\n    {\r\n        return super.supportsInterface(interfaceId);\r\n    }\r\n\r\n\r\n}",
  "sourcePath": "C:\\Users\\avina\\Desktop\\Coddboxx\\Express\\contracts\\RocketElevator.sol",
  "compiler": {
    "name": "solc",
    "version": "0.8.10+commit.fc410830.Emscripten.clang"
  },
  "schemaVersion": "3.4.9",
  "updatedAt": "2022-08-26T18:56:39.585Z",
  "networkType": "ethereum",
  "devdoc": {
    "kind": "dev",
    "methods": {
      "approve(address,uint256)": {
        "details": "See {IERC721-approve}."
      },
      "balanceOf(address)": {
        "details": "See {IERC721-balanceOf}."
      },
      "burn(uint256)": {
        "details": "Burns `tokenId`. See {ERC721-_burn}. Requirements: - The caller must own `tokenId` or be an approved operator."
      },
      "getApproved(uint256)": {
        "details": "See {IERC721-getApproved}."
      },
      "isApprovedForAll(address,address)": {
        "details": "See {IERC721-isApprovedForAll}."
      },
      "name()": {
        "details": "See {IERC721Metadata-name}."
      },
      "owner()": {
        "details": "Returns the address of the current owner."
      },
      "ownerOf(uint256)": {
        "details": "See {IERC721-ownerOf}."
      },
      "renounceOwnership()": {
        "details": "Leaves the contract without owner. It will not be possible to call `onlyOwner` functions anymore. Can only be called by the current owner. NOTE: Renouncing ownership will leave the contract without an owner, thereby removing any functionality that is only available to the owner."
      },
      "safeTransferFrom(address,address,uint256)": {
        "details": "See {IERC721-safeTransferFrom}."
      },
      "safeTransferFrom(address,address,uint256,bytes)": {
        "details": "See {IERC721-safeTransferFrom}."
      },
      "setApprovalForAll(address,bool)": {
        "details": "See {IERC721-setApprovalForAll}."
      },
      "symbol()": {
        "details": "See {IERC721Metadata-symbol}."
      },
      "tokenByIndex(uint256)": {
        "details": "See {IERC721Enumerable-tokenByIndex}."
      },
      "tokenOfOwnerByIndex(address,uint256)": {
        "details": "See {IERC721Enumerable-tokenOfOwnerByIndex}."
      },
      "tokenURI(uint256)": {
        "details": "See {IERC721Metadata-tokenURI}."
      },
      "totalSupply()": {
        "details": "See {IERC721Enumerable-totalSupply}."
      },
      "transferFrom(address,address,uint256)": {
        "details": "See {IERC721-transferFrom}."
      },
      "transferOwnership(address)": {
        "details": "Transfers ownership of the contract to a new account (`newOwner`). Can only be called by the current owner."
      }
    },
    "version": 1
  },
  "userdoc": {
    "kind": "user",
    "methods": {},
    "version": 1
  }
}